:020000041000EA
:1000000000B5324B212058609868022188439860DF
:10001000D860186158612E4B002199600221596106
:100020000121F02299502B49196001219960352056
:1000300000F044F80222904214D00621196600F024
:1000400034F8196E01211966002018661A6600F04E
:100050002CF8196E196E196E052000F02FF8012189
:100060000842F9D1002199601B49196000215960AB
:100070001A491B48016001219960EB211966A021F2
:10008000196600F012F800219960164914480160C1
:100090000121996001BC002800D000471248134993
:1000A000086003C880F30888084703B5996A0420EC
:1000B0000142FBD001200142F8D103BD02B5186610
:1000C0001866FFF7F2FF186E186E02BD00000240BE
:1000D000000000180000070000035F00212200005C
:1000E000F4000018222000A00001001008ED00E03C
:1000F00000000000000000000000000074B24E7A12
:1001000000200420F7010010C3010010C5010010F9
:10011000C1010010C1010010C1010010C101001097
:10012000C1010010C1010010C1010010C701001081
:10013000C1010010C1010010C9010010CB01001065
:10014000CD010010CD010010CD010010CD01001037
:10015000CD010010CD010010CD010010CD01001027
:10016000CD010010CD010010CD010010CD01001017
:10017000CD010010CD010010CD010010CD01001007
:10018000CD010010CD010010CD010010CD010010F7
:10019000CD010010CD010010CD010010CD010010E7
:1001A000CD010010CD010010CD010010CD010010D7
:1001B000CD010010CD010010CD010010CD010010C7
:1001C00000BE00BE00BE00BE00BE00BEEFF3058054
:1001D000103800BEF2EB8871343506105C3506101D
:1001E0003402001090A31AE700201F49086006C8D7
:1001F00081F3088810471D48006800282FD10DA4FE
:100200000ECC002902D000F012F8F9E71849194A7B
:10021000002000E001C19142FCD1174988471749ED
:1002200088471749884700BEFDE701C901C29A42C5
:10023000FBD370475C350610C0000020E428002086
:10024000805D06100000042000000420805D061080
:10025000001004200010042000000000704709482E
:1002600003F000FC0047000008ED00E0000000D0B3
:10027000E8280020084B0220192700104503001031
:10028000DB2600105756000006005250ABB36053F7
:100290001CEF041006005250861C03022CEF0410C1
:1002A000060052505422A29D38EF0410050052500F
:1002B000DE65F468805D0610F8B5C046064807495B
:1002C000091A8B10C90FC91810B5491003D0044B77
:1002D000002B00D0984710BDE4280020E42800201F
:1002E00000000000054B10B5002B03D00449054861
:1002F00000E000BFFFF7E2FF10BDC04600000000B5
:100300000C46002008E3041010B5040003689B6845
:1003100098472368DB6820009847FAE710B507483C
:1003200007F0D6FD002801D1054810BD044800F0B3
:100330001BFB024807F0E8FDF6E7C046402D002011
:1003400048400020F0B589B004F032FB2649274D23
:10035000280027F023FD27F089FB254C254928009C
:1003600027F01CFD80235B05E11827F0A3FE22493E
:1003700027F014FD210027F0E5FD204927F00EFDB0
:1003800027F074FB8020C00004F09EF804000022D7
:100390000821202005F060FEFFF7C0FF07A800F04D
:1003A00065F805AE2100300000F022F9144C0394EA
:1003B000144D039504961449144800270197032609
:1003C00000960023802207F077F811491148019721
:1003D000009603AB802207F06FF807F0C7F803958B
:1003E0000394002009B0F0BD08E30410743D002020
:1003F000805D06003CE304104CE3041054E3041059
:10040000541905107C19051064E304106D090010DF
:1004100074E304100903001030B583B00400FFF743
:100420007DFF00F0D3FA05000E2C0BD00F2C10D05E
:1004300000230193009328680022694605F054FECA
:1004400003B030BD0649074827F0A8FC27F00EFB93
:10045000EEE70549034827F0A1FC27F007FBE7E793
:1004600084E30410743D002098E3041010B50F20BD
:1004700000F082FBD0231B06802212029A62064BF8
:10048000012208210F2000F01BFB012208210E2071
:1004900000F006FB10BDC0461904001070B5060040
:1004A0000D1C081C03F0B0FF84B2002C12D02000F9
:1004B00003F082FF011C281C03F019FF8721C905E6
:1004C00003F02FFF03F0A0FFC3B21B0224041C4360
:1004D000346070BD0023F8E770B504000D001022F1
:1004E000002104F037F880235B022360F8235B02CD
:1004F00063608023DB02A360C0231B03A360EB1CAB
:10050000ED011B031D43656080239B05E360024BE7
:100510001D406560200070BDFFFFFF9FF0B5CE4617
:10052000474680B587B004000D00160098460EAB14
:1005300080CB1B7899462A4B98424DD007214046E4
:1005400000F04CFA0123009342462900200004F0F9
:100550000FFC310002A8FFF7BFFF059B214A1340A3
:1005600042469202134305934B46002B36D020227D
:1005700004991D4B194080239B020B435206F8211E
:1005800089050A40134304939B009B088022D205EF
:1005900013430493052001F0CBFF03F00DFF8046C9
:1005A0001249381C03F0BDFE011C404603F0A5FEB5
:1005B000011C02A8FFF772FF02AB320029002000E5
:1005C00004F028FC23680122AA401343236007B0EB
:1005D000C0BCB946B046F0BD0621B0E71822C7E757
:1005E00000002050FF83FFFFFFFFF5C10000204106
:1005F00030B583B0040008000C4B2360616080229A
:10060000D200002103F0A6FF09490A4D280004F09A
:1006100093FB020000230193074B00930223002168
:100620002800FFF77BFF200003B030BD111111112E
:1006300064190510000020500050434910B540686F
:100640008022D200002103F085FF10BD82B001AAF4
:10065000118041680023D356527852B212019B1880
:100660009B000268CA5002B07047F0B5C64600B59C
:1006700084B0070001A801801600984600250FE00D
:1006800001AA1178091903AB1970517849195970E9
:1006900003993800FFF7DAFF0134B442F0DB01358B
:1006A000454501DA0024F8E704B080BCB846F0BD47
:1006B000F0B589B0070001AB19801600002523E0D2
:1006C0000134072C1FDC715D0123A3400B42F7D0DE
:1006D00005AB1C705D7003AA01A9098811801988F7
:1006E00004AB19801178E3B2C91807AB19705278BE
:1006F000E9B252185A701A8806AB1A800699380067
:10070000FFF7A4FFDCE70135072D01DC0024D8E763
:1007100009B0F0BD120409020A431A43026070478F
:100720000902034B5B68DB03FBD4014B1961704783
:100730000000205070B50600002518E072680F23F5
:100740001B1B29015B189B00D1583000FFF7E8FF05
:1007500001340F2C0ADCEB07F0D572682B011B1952
:100760009B00D1583000FFF7DBFFF1E701350F2D7B
:1007700001DC0024EDE770BD024B0360024B036017
:100780007047C0467C1905105419051030B583B068
:100790001049114D280027F001FB27F067F96C463E
:1007A0000E4B220003CB03C204F0C2FB200004F076
:1007B000F5FB0B49280027F0F1FA617927F0D4FA0C
:1007C000084927F0EBFAA17927F0CEFA27F04EF985
:1007D00003B030BDACE30410743D00208C1905104B
:1007E000C0E304102C060510F0B5D6464F46464629
:1007F000C0B588B004004849484E300027F0CEFA12
:1008000027F034F96068FFF719FF60680F230F22A3
:100810000F21FFF77FFF606803AB002290461A703C
:100820005A70102310320399FFF71FFF01AD280003
:1008300004F0E8FB3A49300027F0B0FA697927F074
:1008400093FA384927F0AAFAA97927F08DFA27F008
:100850000DF90523EB569A460626AE57606800232D
:1008600000220021FFF756FF676804AB42461A706A
:100870005A700A21504603F021F93030C2002A4D47
:10088000521904993800FFF713FF676805AB082277
:1008900091461A7042465A700A21504603F00EF9EA
:1008A0003031CA00521905993800FFF701FF60681E
:1008B000002300220021FFF72DFF676806AB4246A8
:1008C0001A704A465A700A21300003F0F7F83030A7
:1008D000C200521906993800FFF7EAFE6768134B09
:1008E0001A8907AB1A800A21300003F0E7F830318B
:1008F000CA00521907993800FFF7DAFE6068FFF75F
:1009000019FFFA20800006F02BFF08B0E0BCBA46C1
:10091000B146A846F0BDC046E4E30410743D002093
:10092000F8E304102C060510701300208C19051034
:1009300010B50400044B0360044B0360082103F06E
:1009400025FE200010BDC0467C1905105419051065
:1009500010B500220821202005F07EFB014B186015
:1009600010BDC0464C2D00207047000030B583B04C
:10097000082003F0A9FD05000DE06C4623002A00C5
:1009800003CA03C30B490C4827F008FA616827F033
:10099000D5FA27F06BF80122084B1868524229005B
:1009A00005F040FC0128E8D0054B064A0648162110
:1009B00001F096FE14E40410743D00204C2D00203C
:1009C0002CE4041044E4041070E404100048704760
:1009D0004C2D002010B5FFF7BBFF10BD10B58300F4
:1009E000084A944663441A684024624080341440A4
:1009F0008022520113431C60C000034B9C4660449C
:100A0000416010BD04C001400040014070B50400C9
:100A1000D0231B061D680D4BAA00D358002B0AD00B
:100A2000002803D0094BAD00EC5070BD08490D20E3
:100A300000F0E0FAF6E70028F7D0044BAD00E850EC
:100A4000034900220D2000F0CDF9EEE79C44002080
:100A5000E10A0010072303409B00C00899403C3086
:100A60008000014BC150704700400140F8B50700BD
:100A70000C0016001D00FFF7EDFFFB089B00ED18B2
:100A80000720384080008440002E04D080239B0142
:100A90002B431C60F8BDC0239B012B431C60F9E76E
:100AA00010B5D0231B061B68002B03D0024BFFF7A9
:100AB000DDFF10BD014BFAE730410140004101402C
:100AC00070B514001D00FFF7EBFF2800FFF79EFF35
:100AD000002C00D170BD01210D2000F049F9F9E78B
:100AE000F0B5D6464F464646C0B5D0231B061F6814
:100AF0001D4BBA00D3589846002F03D01B4B994684
:100B0000002623E01A4B9946FAE724090135002C08
:100B10001BD033000833AB4217D90F231A002240F1
:100B200092462342F1D0134BBA00D2580123AB4076
:100B30001342EAD151462800FFF78CFF4346002BB1
:100B4000E3D051462800C047DFE708361D2E06D8FF
:100B5000F30808339B004A469C583500D7E7E0BCB1
:100B6000BA46B146A846F0BD9C4400203041014041
:100B700000410140AC46002010B501238340D02243
:100B80001206936293610521FFF728FF10BD000054
:100B9000034B1B6802201840431E9841C0B27047A7
:100BA00000C00640EFF3108072B6034B1B68002BA9
:100BB000FBD0BFF35F8F70472C0100D0BFF35F8F76
:100BC000024B00221A6080F3108870472C0100D07D
:100BD000F8B506000C001500FFF7E4FFE308F7186E
:100BE000F15C07222240012393400B4205D1DBB286
:100BF0000B433B70FFF7E2FFF8BD2100280001F036
:100C000007FE0000002307E0054A9A189200BFF390
:100C10005F8F0021116001331F2BF5D97047C0464B
:100C200040000034054A1078431CDBB21370172BC8
:100C300002D9130010221A707047C04670170020A6
:100C400010B50100024A034B1800FFF7C1FF10BDA9
:100C5000B0E40410AC440020074B9B6810308000C7
:100C60001950BFF35F8FBFF35F8F044B00211960F2
:100C700082F310887047C04600ED00E0240100D0E8
:100C800010B50388DA0A1C2A05D15B055B1502330F
:100C90005B00C01810BD034B034A0448B12101F0AA
:100CA0001FFDC046D0E40410EC190510E8E4041060
:100CB00010B5091A0B1F0A4A88180A4A904208D828
:100CC000C90706D45B105B055B0D0748184380B26B
:100CD00010BD064B064A0748A32101F001FDC0469E
:100CE000FC070000FE0F000000E0FFFF30E50410ED
:100CF000E0190510E8E4041010B5091A04394A088F
:100D0000090B08D14905490D064B0B430380064BDF
:100D10001343438010BD054B054A0648AB2101F043
:100D2000DFFCC04600F0FFFF00F8FFFF60E50410A5
:100D3000B4190510E8E4041001238340034A106845
:100D40001840431E9841C0B27047C04600E100E021
:100D5000002904D0034B1860034B18607047034B05
:100D60001860FBE780E200E000E100E080E100E0E5
:100D700010B5012383401800FFF7EAFF10BD000003
:100D8000024B9B6810308000C058704700ED00E0B7
:100D900070B504000D00EFF3108672B60C4B1B68A3
:100DA000002BFBD0BFF35F8F2000FFF7E9FF094B5B
:100DB000984201D0A84205D1320029002000FFF757
:100DC0004BFF70BD044B054A0548862101F088FCA5
:100DD000240100D0CD01001070E50410141A051094
:100DE000E8E40410F0B5DE4657464E464546E0B509
:100DF00089B0814601911500EFF3108A72B66D4BF0
:100E00001B68002BFBD0BFF35F8F6B4B00269E57F8
:100E1000002E41DB7400A419A4006848241806229F
:100E2000A256654B1A70664B9A684B4610339B006E
:100E3000D35898461F00181A2F2839D9614B984566
:100E400030D105AF604B3B80604973009B469819D9
:100E500080005A4B984640440230FFF729FF7880C3
:100E60005B4BBB80FF23BB71FD71019B079333007C
:100E70005B449B00434407CF07C301231C43A046A8
:100E8000524641464846FFF7E7FE09B0F0BCBB4674
:100E9000B246A946A046F0BD4E4B4F4A4F48D72117
:100EA00001F01EFC4E4B4C4A4C48DE2101F018FC70
:100EB00001380C2102F02AFE002912D101239F43A0
:100EC000BB463B000027DA79AA4211D906215956C0
:100ED00000290CDB4A005218920038491F008B1879
:100EE000F1E7404B3C4A3D48EA2101F0F9FB1F0085
:100EF000002F2ED005AB3C4A1A80813A5A80062337
:100F0000FB560293002B17DA384805AB9B469880B6
:100F1000029A9A71DD71019A0792381D2100FFF73C
:100F2000C7FEB880BE71254B7200921992009B18C3
:100F30005A4613CA13C3A3E7381DFFF7A1FE0100E9
:100F40007000801980001D4BC0180430FFF7B0FE00
:100F5000DBE705AF1C4B3B801C49730002939B19D8
:100F60009B00164A90461A0042440392901CFFF7D9
:100F70009FFE7880039A101D5946FFF799FEB880AE
:100F80001B4B5A464146521A524153431B0DBB71EB
:100F9000FD71019A0792029B9B199B00434407CF66
:100FA00007C3114B5A461380813B538001231C43D6
:100FB000A04665E7240100D0034B022074170020EF
:100FC00000ED00E0CD01001000A1FFFFA4170020FC
:100FD00001BDFFFFA8E50410FC190510E8E40410AA
:100FE000D0E50410F8E504100148000001BD000040
:100FF000AAAA0000F0B5CE46474680B583B00600E9
:101000000D00EFF3108872B64F4B1B68002BFBD01E
:10101000BFF35F8F4D4B9A6834001034A300D7584C
:101020004B4B9F4207D0AF4200D18BE00197494B19
:10103000FB1A2F2B09D9424639003000FFF70CFE6E
:1010400003B0C0BCB946B046F0BD3000FFF774FE37
:10105000814600213000FFF78BFEBFF35F8FEFF377
:101060000581002901D08C4211D10123019C9C43B0
:101070000020A368AB4212D00622A256002A0DDB44
:1010800053009B189B00334A2000D418F1E7324BE1
:10109000324A36213248FF3101F022FB2000AB42B8
:1010A00049D106256557002D2BDB2A4B6A005219C2
:1010B00092009B189A68A260DA79E2719B795BB220
:1010C000A371002B0FDA2748A080224B6A00521927
:1010D00092009B18244A1178997115704946300086
:1010E000FFF746FEA7E7680040198000194BC018BB
:1010F0000430FFF7C5FD0100231D1800FFF7D8FDE0
:10110000E2E7002912D100280ED0FF238371174B8C
:10111000838015490B78A3710E4A154BA41A6441BC
:1011200063431B0D0B70D9E7094FF2E71149201DEE
:10113000FFF7E2FDD2E7104B084A6A210848FF3169
:1011400001F0CEFA024F76E7240100D000ED00E076
:10115000CD010010741700206CE60410CC190510A6
:10116000E8E4041001BD0000034B022001BDFFFFB5
:10117000AAAA0000AE170020A0E6041010B50323B1
:1011800004009C43064A9446644422681840C00008
:10119000FC3383409A43130081400B43236010BD0E
:1011A00000E400E070B5012202432E4BD31A2F2B2E
:1011B00028D8EFF30583002B2BD0EFF3108C72B6F9
:1011C000294909680029FBD0BFF35F8F254C2749C7
:1011D00005002D1B6D416943090D4CB224498968F6
:1011E0009B00C95891421BD00021032932D81D4BC6
:1011F0004A00521892009B189B795BB2A3421FD001
:101200000131F2E71B4B1C4AC7211C48490001F081
:1012100067FA1B4B184A92211848FF3101F060FA17
:10122000134A92681749D150174B1A7882711C7073
:10123000BFF35F8F0C4B00221A608CF3108870BDD7
:10124000084B4A005518AD005D19FF26AE710F4AD4
:10125000AA80E9E70E4B084AD1210848490001F06D
:101260003FFAC04674170020240100D0AAAA00004B
:1012700000ED00E0A8E6041098190510E8E4041059
:10128000D0E60410CD010010034B022001BDFFFF8A
:10129000DCE604100022044B02E0044902C30132E0
:1012A000072AFAD97047C04600E400E080808080B9
:1012B000024B9C4661448900016070474000003445
:1012C00010B50400FFF7AEFC01002000FFF7F0FFAF
:1012D00001235B426360BFF35F8F10BD10B5040054
:1012E000FFF7A0FC01002000FFF7E2FF01235B42B3
:1012F000636000232372BFF35F8F10BD084B5B6AEE
:10130000994209D8064A926A824207D2994201D08C
:10131000012002E0002000E0002070470120FCE7EF
:101320000040054010B500290AD003681B7B8B42A2
:1013300006D38068054B9C4661440901401810BDE6
:10134000034B044A04483C2101F0CAF9FFFFFF0F98
:1013500078E70410241B05109CE70410F8B504007E
:101360001700FFF7DFFF0668456839002000FFF728
:10137000D9FF026843680120AB4201D802D00020A7
:10138000C0B2F8BDB242FBD8F9E7000010B5002B9F
:1013900002DB0260436010BD024B034A03483F2159
:1013A00001F09EF9DCE70410F01A0510F8E70410CC
:1013B00010B582B004000498059912184B41002B17
:1013C00009DB6846FFF7E2FF009A019B2260636039
:1013D000200002B010BD01225242014BF1E7C0468D
:1013E000FFFFFF7F10B5002908D0037B8B4205D398
:1013F00000684B005B18033BC01810BD024B034A4A
:101400000348682101F06CF948E80410CC1A051073
:1014100064E8041010B5437B8B4201D1012010BD5C
:10142000FFF7E0FF8378002B01D10020F7E70120D0
:10143000F5E770B50400857B002D01D1280070BD53
:101440002900FFF7CFFF4378A373002B00D1E3738C
:101450000023837043700370F0E70000F8B50600C6
:101460000C001500FFF7BEFF0700002C0DD0002D6B
:1014700011D0AC4215D029003000FFF7B3FF8470C3
:101480003B78002B13D13D70F8BD0A4B0A4A0B483C
:101490006F2101F025F90A4B074A0848702101F035
:1014A0001FF9084B044A0548712101F019F94370EE
:1014B0003D70E9E7B8E80410A81A051064E80410C4
:1014C000C4E80410D0E8041070B506000D00140044
:1014D000002914D0002A14D0436880689847002857
:1014E00006D0220029003000FFF7B8FF280007E0EF
:1014F0002A0021003000FFF7B1FF200000E01000BB
:1015000070BD0800FCE7000070B504000D1E0CD093
:10151000FFF768FF0023837043700370617B2A002C
:101520002000FFF7D1FF607370BD034B034A0448EE
:10153000A52101F0D5F8C046E8E80410BC1A051052
:1015400064E8041070B504000D1E0FD0FFF762FFB1
:1015500000280BD1E17B00290ED1A37B002B03D106
:10156000E37B002B0DD1A573E57370BD084B094AD1
:101570000948F62101F0B4F82000FFF733FF457069
:10158000EBE7064B034A0448FB2101F0A9F8C046EB
:10159000ECE80410981A051064E8041010E904102F
:1015A00010B5002907D003681B7B8B4203D3C068AA
:1015B0000139401810BD034B034A0448412101F092
:1015C0008FF8C04678E70410841A05109CE70410D1
:1015D00070B505000C00080000F042FC094920002D
:1015E00000F082FBFFF71EFB074B9C466044800027
:1015F00068602C75D0231B061B786B75034BA40009
:10160000E55070BDC916001040000034244600208B
:1016100010B582B0040000F029FB02000B00684600
:10162000FFF7B4FE009A019B22606360200002B0C5
:1016300010BD0000F0B583B0070001921D000AAB99
:101640001C780BAB1E78002C0BD000682100FFF734
:10165000E1FE002809D0194B194A1A48672101F008
:101660003FF80068FFF7E5FE0400002C02D12000DF
:1016700003B0F0BD21003800FFF754FE019B03606A
:101680004560089B8360099BC36038682100FFF7B1
:101690003BFFA042EBD1387D019A2B0000F06CFBA0
:1016A000051E01D0002E04D00C9B002BDFD01D7036
:1016B000DDE73868210000F019FDF5E724E90410A2
:1016C000D81A05109CE70410F0B5DE4657464E4682
:1016D0004546E0B58FB00B900021794B8200D4587D
:1016E000894683E029002000FFF71CFE804602683F
:1016F0004368921BBB41002B09DD43461A685B68B7
:101700000B9800F039FB0023984600268AE0002B56
:1017100001D1002AF1D10021584600F0DDFC07007C
:10172000A84215D143461A685B680892099343465C
:101730009E68DB689846002E10D029002000FFF735
:101740002FFF037899461B021F432761002069E0A1
:101750005C4B5D4A5D488E2100F0C2FF5C4B5A4AEB
:101760005A48922100F0BCFF2369002B00D177E09A
:10177000BB4219D106980799002342428B4100923F
:101780000193089A099B0CA8FFF712FE0C9A0D9B77
:101790000021049101310391029541460191009687
:1017A0002000FFF747FF16E04A4B474A4748A12170
:1017B00000F096FF069A079B002B01D1002A52D118
:1017C00020682900FFF7BEFE29002000FFF7E8FE91
:1017D000037801330370002323616268BFF35F8FD6
:1017E00013608AF310880120002861D00CA8FFF74D
:1017F0000FFF0C9E0D9F0022002308920993626840
:10180000EFF3108A72B61368002BFCD0BFF35F8F22
:1018100023689B465D7B002D00D063E7002398463C
:10182000002600206368BFF35F8F00221A608AF3EE
:101830001088002ED8D04B461F022F434146380057
:10184000B047069007916268EFF3108A72B613688A
:10185000002BFCD0BFF35F8F079B002B00DA83E7E0
:10186000079B002BA6DD2369002BA9D0BB4219D111
:101870000CA8FFF7CDFE0C9A0D9B069807990090D7
:1018800001910CA8FFF794FD0C9A0D9B0021049187
:101890000131039102954146019100962000FFF726
:1018A000C9FE98E70B4B084A0848A42100F018FF2E
:1018B0000FB0F0BCBB46B246A946A046F0BDC0463C
:1018C000244600204CE90410081B05109CE7041076
:1018D00064E9041070E9041010B5084B1A68EFF3BE
:1018E000108172B61368002BFCD0BFF35F8F0348E2
:1018F00004F01CF80020002110BDC046A0490020C3
:1019000010B50C4B5B68002B04D00B480A21FFF785
:10191000CFFC10BD074C094A20682300102100F0BD
:1019200046FB032000F096F903212000FFF750FE4C
:10193000EBE7C046BC170020A04900205D13001053
:1019400010B5064B5B68002B01D0044810BD044B5A
:10195000044A05485E2100F0C3FEC046BC170020C3
:10196000ACE904106C1A05109CE70410F0B5DE46D3
:1019700057464E464546E0B58DB0060090461F00DE
:10198000169B9A46179B994618AB1B7807932723FB
:1019900002AA9446634400221A7021E0010030003C
:1019A000FFF7FEFD00783CE00698002B5CD0079B1B
:1019B000002B59D04946D04704000D0003000B43CB
:1019C00059D0002940DB08A8FFF722FE089A099B9E
:1019D0000094019508A8FFF7EBFC089B9846099F27
:1019E0007268EFF3108B72B6136859424B41D9B24B
:1019F0000691002BF8D1BFF35F8F273302AA9446DC
:101A0000634404930023039302934B46019353468C
:101A1000009342463B003000FFF70CFE0400051E19
:101A2000BCD17368BFF35F8F002119608BF31088FE
:101A3000002D17D0272302AA944663441B78002B5D
:101A4000B2D100022043B0E700236242AB410092D2
:101A5000019342463B0008A8FFF7AAFC089B984662
:101A6000099FBDE7012040420DB0F0BCBB46B24625
:101A7000A946A046F0BD0698F6E7F0B5C64600B503
:101A800084B00500884616001F000AAB1C78FFF7DB
:101A900057FF0294019700962A004346FFF766FF1E
:101AA00004B080BCB846F0BDF0B5C64600B5050030
:101AB0000C1E42D04268EFF3108772B61368002BF9
:101AC000FCD0BFF35F8FE6B22B6898463100180058
:101AD000FFF7A0FC00282AD02B69A34213D0240AC8
:101AE000E4B231002800FFF75BFD0378A34211D078
:101AF00000206B68BFF35F8F00221A6087F31088A5
:101B000080BCB846F0BD0E4B0E4A2C210E48FF316A
:101B100000F0E6FD3100404600F0E8FA0028E8D188
:101B20000A4B084A99210848490000F0D9FD2B6961
:101B3000A342DED100232B61DBE70020E0E7C046B3
:101B4000D0E90410541A05109CE70410F4E90410BD
:101B500010B50400FFF7F4FE2100FFF7A5FF10BD4C
:101B600030B583B005000C00EFF30583002B0FD1D7
:101B70000B4A00230093FFF780FF00280BDD20BFF6
:101B8000FFF7E6FF28002100FFF7B8FB03B030BDE8
:101B9000FFF7B4FBFAE728002100FFF7AFFBF5E7FA
:101BA000D918001010B5002B02DB0260436010BD95
:101BB000024B034A03483F2100F092FDDCE704108A
:101BC000541B0510F8E7041070B5EFF305801038CA
:101BD000EFF3108C72B6194B1B68002BFBD0BFF3D0
:101BE0005F8F01221300834015494B6315490B6039
:101BF000154909780C00C440224213D0104A546A97
:101C0000124A8500AA58944205D3114AAA580E4C8C
:101C10009943217007E00A4A031D9B009958995087
:101C2000002200E00022BFF35F8F044B0021196007
:101C30008CF31088002A00D0904770BD280100D096
:101C4000004005403C700540044B0220A4490020A0
:101C50008C43002010B50100024A034B1800FEF728
:101C6000B7FF10BDF8E90410024B0220044B5B6A79
:101C7000034A906A1900536A9942F9D17047C046E5
:101C800000400540084B5B6A01E0074B5B6A8B42F2
:101C9000FBD301E0044B5B6A8B4203D1024B9B6A8E
:101CA0008342F7D37047C04600400540F0B583B08B
:101CB00004000D00FFF7DAFF06000F0022002B00E2
:101CC00092197B41994202D804D1904202D9012253
:101CD0005242D3176846FFF765FF00980199FFF756
:101CE000D1FF03B0F0BD000070B504000E00EFF3AB
:101CF000108572B61B4B1B68002BFBD0BFF35F8FA8
:101D0000002E1CD02000FFF73BF8174B83420BD06E
:101D100019002000FFF73CF801212000FFF728F808
:101D20000123A340114A1360114BA400E650BFF3F6
:101D30005F8F0C4B00221A6085F3108870BD0C4B2E
:101D4000A2000021D1500122A2400A490B789343FE
:101D50000B7005492000FFF74DF900212000FFF727
:101D600007F8E4E7280100D0C91B001038600540DF
:101D70008C430020044B0220F0B5DE4600B584B051
:101D80000400150001921E000293FFF76FFF0395F8
:101D90008E4202D84ED185424CD9EFF3108B72B6E9
:101DA000274B1B68002BFBD0BFF35F8F254A1778AA
:101DB0000125A540EBB23B431370234B5D63221D0D
:101DC00092000199D150214AA100029888501B6AC3
:101DD0002B4212D11C4B1B6C2B4208D00020BFF3AE
:101DE0005F8F174B00221A608BF3108823E0184B8B
:101DF000184A1948C52100F073FCFFF737FF8E42DF
:101E000014D802D1039B834210D80E4B1B78BB42DF
:101E10000ED00D4B1D625D631F22224001239340B3
:101E20000E4A1360074B1F700120D8E70020D6E749
:101E30000120D4E7012004B080BCBB46F0BDC04601
:101E4000280100D0044B022000400540A449002096
:101E50001CEA0410381B051040EA041080E200E080
:101E6000EFF3108C72B60B4B1B68002BFBD0BFF34B
:101E70005F8F01238340084A136208490A789A4316
:101E80000A70BFF35F8F034B00221A608CF3108837
:101E90007047C046280100D000400540044B022096
:101EA00010B5002908D0037B8B4205D300684B0096
:101EB0005B18033BC01810BD024B034A034868215E
:101EC00000F00EFC48E80410AC1B051064E8041098
:101ED000F8B506000C001500FFF7E2FF0700002C24
:101EE0000DD0002D11D0AC4215D029003000FFF7E5
:101EF000D7FF84703B78002B13D13D70F8BD0A4B9F
:101F00000A4A0B486F2100F0EBFB0A4B074A0848CE
:101F1000702100F0E5FB084B044A0548712100F0F0
:101F2000DFFB43703D70E9E7B8E80410981B05102B
:101F300064E80410C4E80410D0E8041070B506008A
:101F40000D001400002914D0002A14D043688068C2
:101F50009847002806D0220029003000FFF7B8FF7C
:101F6000280007E02A0021003000FFF7B1FF200021
:101F700000E0100070BD0800FCE770B5050000230C
:101F8000437301338373037BC373012406E0210091
:101F90002800FFF785FF0134E4B24470297BA14299
:101FA000F5D82800FFF77CFF0023437070BD10B503
:101FB000017342608360FFF7E0FF10BDF0B5C646D5
:101FC00000B505000C1E03D1200080BCB846F0BD52
:101FD000FFF766FF4678002EF6D031002800FFF7A5
:101FE0005FFF477800239846437021002800FFF7E1
:101FF00057FF43464370320021002800FFF79EFF41
:10200000040039002800FFF7D9FF02002100280052
:10201000FFF794FF0400D7E7F0B5C64600B504000B
:102020000D001700002927D0FFF73AFF4378002B57
:1020300028D18378002B2BD101782000FFF7BEFF39
:1020400006008046002F0AD0E17B002926D1A37B21
:10205000002B03D1E37B002B25D1A573E573434609
:10206000002B26D129002000FFF71AFF0023437020
:10207000300080BCB846F0BD114B124A12483821DE
:1020800000F02EFB114B0F4A0F483A2100F028FBBD
:102090000F4B0C4A0C483B2100F022FB2000FFF7BD
:1020A000FFFE4570D3E70B4B064A0748422100F07C
:1020B00017FB31002000FFF7F3FE00238370D1E708
:1020C0008CEA0410841B051094EA0410D4EA04106E
:1020D000FCEA041010E9041070B504000A00457B06
:1020E0002900FFF799FF6073280070BD70B50600E6
:1020F0000C1E40D0437B8B4207D0FFF7D1FE05007A
:102100008178002906D1002036E00121FFF7E4FFA5
:10211000012031E03000FFF7C3FE0178A1420DD06D
:102120003000FFF7BDFE4178A1420AD00029F7D167
:10213000124B134A13486B3100F0D2FA6B780370DC
:1021400001E06B7843700023AB706B7001222100BB
:102150003000FFF761FF0200717B814205D0300043
:10216000FFF7ECFE7073012006E0074B044A0548B8
:10217000712100F0B5FA002070BDC046DCE6041005
:102180006C1B051094EA041020EB041070B5046B6E
:10219000E30701D4200070BD02003032C0239B0150
:1021A00013430A4A1A60456A836AAD01ED18AD020D
:1021B000062000F0BDF9064901F0A8FC0100280046
:1021C00001F0A4FC0021FFF771FDE3E7010300002B
:1021D0004E0E000070B504000E001500FFF7D6FF8C
:1021E00022002C32E36A5E40354080235B011343BA
:1021F0001D60206370BD000070B505000C00062056
:1022000000F096F9C000210001F080FCC60908D05A
:102210000E4B9E4216D87F230340013334005E08E4
:1022200000E001246C62AE62002200212800FFF76A
:10223000D1FF062000F07CF98000A101891901F08E
:1022400065FC70BD0026024CECE7C046FEFF0000B6
:10225000FFFF000010B505394901013AD2001143D2
:10226000002B09D002220A43012B07D00021114381
:102270006E22FFF7AFFF10BD0022F4E70421F6E75E
:10228000002909D00A22064B9C466044434258412B
:10229000044B4000C252704780225200F3E7C04610
:1022A0000080FCBFB449002070B505000C0006207A
:1022B00000F03EF9061E27D0164B9D4226D0802204
:1022C000D203154B1A60154B1A60154B9B68110011
:1022D0009943FAD100212800FFF7D2FF21002800FE
:1022E000FFF78AFF06000023012208212800FFF7DC
:1022F000B1FF2A002C3280239B01134310221A6065
:10230000084B2B630323AB64300070BD80221204A2
:10231000D7E7C0460080034000E0004000F00040E6
:1023200000C0004001030000F8B5DE4657464E46A7
:102330004546E0B506000F0015000A9A934250D3B7
:102340001A0E92461B0298460A9A002340465146AE
:1023500001F01AFC81467400A419A4002F4B9C467E
:1023600064446368834200D26060331FDBB29B46E3
:10237000012B3CD9C0239B012343802212011A6008
:10238000274BB200D158002907D0586901F0BEFB95
:10239000013043001B18033BFDD26D0123685D40F3
:1023A000E0222A4080235B0123431A605A46012A17
:1023B00028D980239B012343802212011A604B46B7
:1023C00063604A4600234046514601F0DDFB144B52
:1023D000B60098510120F0BCBB46B246A946A046C3
:1023E000F8BD104B104A1148332100F079F9012F44
:1023F000C0D1C0239B01234303221A60A368DB07DB
:10240000FCD5CAE72168794003220A401A60A36814
:102410000125BD401D42FAD0CBE7C04600800040F8
:10242000B044002040EB0410B81B051054EB04101E
:1024300030B583B00C2000F011F9FEF7A9FB00289D
:102440000DD0002304E02E4A99002E488850013315
:10245000092BF8D92A4B2C4A5A6203B030BD2B4BBA
:1024600000229A6700F002F9294B01221A60274BDB
:102470005B6C012BFBD1274B03221A60234B9B6B18
:10248000012BFBD1013300930433234A012123485C
:1024900000F054F805230093214A0121214800F05F
:1024A0004DF8214B0093002202210420FFF73CFF4E
:1024B0001E4D00952B00002201210520FFF734FF5F
:1024C000104C00942300002200210720FFF72CFF6E
:1024D00000942300002200210820FFF725FF0A4B6B
:1024E00000932300002200210920FFF71DFF009523
:1024F0002B00002200210620FFF716FFADE7C046A3
:10250000B0440020006CDC021BB7000000800040DB
:102510003CB0004030B00040002F685900800240BD
:10252000008C864700C00240001BB700405973076B
:10253000014B8000C0587047B0440020F0B5C6463B
:1025400000B504000E0017001D00374801F0DEFA48
:102550008046364BFA18364B9A4239D8010038007B
:1025600001F0D4FA0200103A98235B009A4235D861
:102570006B1E062B38D8069B013B062B34D83F092F
:10258000474537D32D04069B1B031D432368002BAF
:1025900036DB284B9C4244D080235B01264A1360E3
:1025A000264A1360264A926819009143FAD12660A0
:1025B000A060221DC0239B01134321221A602268C0
:1025C000002AFCDAE56008221A6080BCB846F0BD3B
:1025D0001C4B1D4A1D48112100F082F81C4B1A4A61
:1025E0001A48192100F07CF81A4B174A17481C2189
:1025F00000F076F8184B144A1448232100F070F8C4
:1026000022683F231340B342C3D1A3681B051B0DAF
:102610008342BED1E368EE22D2021340AB42B8D16E
:10262000D3E780239B01B9E7001BB70080E84BD3B9
:1026300080F8A93200C0024000E0004000F00040F5
:1026400000C00040A0EB0410C81B051000EC0410F3
:1026500048EC041064EC0410B0EC041080239B00E0
:102660000343014AD362704700800540064BAA220B
:1026700012011A602F22DA60044B054A1A60024BDD
:102680005B68002BFBDA70470040024000600240AC
:1026900000B0FA0000BEFDE703000A4A1268002AF3
:1026A00008D0084A1068C318074A9A4206D3054A58
:1026B00013607047034A05491160F2E70120404268
:1026C000F7E7C0462445002000000420084B022004
:1026D0000020704701204042704710B5FFF7DAFF35
:1026E00030B583B00D001900002A0BD0074B084C01
:1026F000019200932B000200200002F04DF901200E
:10270000FFF7C8FF034B1A00F1E7C046CCEC0410FA
:10271000DCEC04104402051070B52B4B2B4A1A60F8
:102720002B4B2C4A1A602C4B9A682A4B9343FAD1B4
:102730002A4C01E008CC9847294B9C42FAD3FFF77A
:1027400077FE234B274A1A60234B9B68DB43DB0150
:10275000FAD1254B40229A675A671A67DA66234CEA
:1027600009E0234B234A24488721FFF7B9FF2000C3
:10277000FEF7A6FD0834214B9C4209D22368002BAA
:10278000F5D0012BEDD12000FEF7A8FD0C34F2E7C7
:102790001B4DA9681B4CC022200001F0E1FEAC607B
:1027A000EFF30583002B00D000BEFEF72BFAFEF7F7
:1027B00071FDFFF7A5F8144C01E008CC9847134BC6
:1027C0009C42FAD370BDC04600E00040BFCDFBFE86
:1027D00000F00040FE7F3C0000C00040A028002028
:1027E000B0280020FFFFFF0100F0014090280020EA
:1027F0000CED0410D41B05102CED0410A0280020B3
:1028000000ED00E000000020B0280020E4280020B7
:102810000FB400B583B0084802F08EF8049B002B7B
:1028200007D005A90191180002F096F8034802F0BC
:1028300083F80120FFF72EFF78ED0410A8030510A0
:1028400010B50148FFF7E4FF88ED04109A4200D26A
:1028500088547047704710B5002802D00B6849684B
:10286000984710BD0100002007E083001B185B00A3
:10287000501C08601078C01830380A681378303B54
:10288000DBB2092BF1D97047F0B5DE4657464E460C
:102890004546E0B583B093461F000C9B9A460D9CBD
:1028A0000E9B99460F9B9B0703D0B8460F0006006E
:1028B00022E00192A34688464E46B9460700B4423C
:1028C00007D2551C4B4641462020B84701342A0008
:1028D000F5E73D004F465C46019B9B46B1464646A8
:1028E000B84637002E0007E0013C551C5346185DE2
:1028F00043463900B0472A00002CF5D135003E0090
:1029000047460F9B9B0707D4100003B0F0BCBB46A3
:10291000B246A946A046F0BDB0464E46B9462F0085
:102920005D46531BB342EFD2541C4B464146202018
:10293000B8472200F5E7F0B5CE46474680B585B0EA
:10294000944698460C9D0D9C0EAB1B789946109AA8
:10295000119B129EB7071CD4002B0CD0F7070AD589
:102960004F46002F02D10C37374204D0013B02E022
:1029700030272F550134944201D21F2CF8D9F70784
:1029800007D59C4205D21F2C03D830272F55013480
:10299000F5E7F70612D5770505D4002C03D094424D
:1029A00021D09C421FD00F9A102A32D00F9A022AAF
:1029B00037D01F2C0AD830222A5501341F2C05D8B5
:1029C0004A46002A33D02D222A5501340396029319
:1029D0000194009543466246FFF756FF05B0C0BC20
:1029E000B946B046F0BD621E012C10D00F9F102FCB
:1029F0000BD014000F9A102AD8D1B206D6D51F2CAE
:102A0000D4D858222A550134D3E7023CCBE714002E
:102A1000C9E7B206EED41F2CECD878222A5501342F
:102A2000C7E71F2CD2D860322A550134C1E772079C
:102A300003D52B222A550134C8E73207C6D52022F8
:102A40002A550134C2E7F0B5DE4657464E464546A4
:102A5000E0B593B081468A46089209931CAB10CB2F
:102A60001B789B461E9D219B9846002C03D110236A
:102A700042469A4390468023DB0046461E4042462B
:102A80001A4212D0002C22D000260EE03033D9B2E8
:102A9000771C0AAB99552900200001F037F8AC42A9
:102AA00016D31F2F14D83E0004002900200001F087
:102AB0002DF8CBB2092BE9D94246920605D5412122
:102AC000C918C9B20A39C9B2E2E76121F8E727009B
:102AD00043460693209B05931F9B049303955B46F7
:102AE000029301970AAB0093099B089A5146484606
:102AF000FFF721FF13B0F0BCBB46B246A946A04683
:102B0000F0BDF0B5DE4657464E464546E0B597B0B7
:102B10000A900B910C929A46209B9946219F22AADB
:102B200013789B46249B0993259C289B98464A46EC
:102B30003A4302D11032934398468022D200454650
:102B40001540434613420AD04A463A4341D0002535
:102B50002E0053460D934D46099B9A461BE02E00CE
:102B600053460D934D46099B9A4614E03033DAB232
:102B7000731C99460EAB9A55524623002800390023
:102B800001F002F8BC4226D819D04B461F2B1CD8A6
:102B90004E4605000F00524623002800390000F081
:102BA000F3FFD3B2092BE1D94246920605D5412263
:102BB000D218D2B20A3AD2B2DAE76122F8E7AA45CD
:102BC000E3D94E460D9B9A4608E04E460D9B9A4629
:102BD00004E0002602E04E460D9B9A4643460693CB
:102BE000279B0593269B0493099B03935B460293C3
:102BF00001960EAB009353460C9A0B990A98FFF777
:102C00009AFE17B0F0BCBB46B246A946A046F0BD3E
:102C1000F0B5DE4657464E464546E0B591B0804693
:102C200089460C929A461A9C1B9D22002B0020007C
:102C3000290001F02CFA002800D0ECE001225242D9
:102C4000D44B2000290001F01DFA002800D0E2E05A
:102C500001225242D04B2000290001F0FDF900284A
:102C600000D0D8E0002200232000290001F0F4F970
:102C7000002800D0E4E0069407958023DB001E9A2C
:102C80001A400D921E9A1A4201D106231C930698EF
:102C9000079902000B000892099303000A000243FF
:102CA00000D1D9E0080D4005400DBC4EB44660444B
:102CB0000A03120B1E00BA4B13431F0001F0FAF96E
:102CC000B84AB94B01F081F9B84AB94B01F05EF945
:102CD000089009910022B74B3000390001F051F9FA
:102CE000B54AB64B01F071F902000B00089809993A
:102CF00001F04CF901F0F6F9834601F0DBF906002A
:102D00000F00AF4AAF4B01F060F90022AE4B01F06B
:102D10003DF901F0E7F90890AC4AAD4B30003900BD
:102D200001F053F906000F00089801F0C3F9A94A11
:102D3000A94B01F04AF902000B003000390001F004
:102D400020F906000F0002000B0001F03EF90A9086
:102D50000B91089BA14A94466344002100220891EC
:102D600009921B0509930023089332003B003000B1
:102D7000390001F00BF90E900F9132003B0000205A
:102D80008021C90501F0FDF806000F000022944BD8
:102D90000A980B9901F0FFF80022924B01F0F6F827
:102DA00002000B000A980B9901F0F5F800228E4BF7
:102DB00001F0ECF802000B000A980B9901F0EBF817
:102DC00002000B003000390001F0E0F802000B00B7
:102DD0000E980F9901F0DFF80022714B01F0D6F840
:102DE000089A099B01F0F1F806000F000896099770
:102DF000069A079B01F046F900282FD001235B4279
:102E00009C46E3440022774B3000390001F0C3F8C0
:102E10000890099122E01E9B04931D9B03931C9B29
:102E200002930094019553460C9A4946404600F09F
:102E3000FFF811B0F0BCBB46B246A946A046F0BDB3
:102E40000021002206910792069480231B069C46CF
:102E5000AC446346079310E700239B465B4663330D
:102E6000C62B20D804261E9B1B0528D5089A099B33
:102E7000190011430FD05D4A5D4B0698079901F088
:102E8000F9F800287AD000225A4B0698079901F0E9
:102E9000E3F8002872D01C9B5B4506DD5A469B1A5E
:102EA000013B1C9303E00526DDE700231C938023F0
:102EB000DB001E9A1A431E92002600239B461D9B90
:102EC0009E4265D29F1B02231E9A1A400A921E9AA6
:102ED000134202D0002E00D000275B46002B07D003
:102EE000089A099B0698079901F055F806900791F2
:102EF000002200232000290001F0AEF8002800D0B5
:102F00007CE03D4B1E9A1340049303971C9B029355
:102F1000069B079C0093019453460C9A49464046F1
:102F200000F086F8002E00D183E71E9B9B0671D52A
:102F30004525441C5346020049462800C0475A46CE
:102F4000D317D2185A4005230593013E0496002357
:102F500003930A3302935B46DB0F019300925346BF
:102F6000220049464046FFF76EFD0A9B002B00D128
:102F70005FE7020047460C9E1D9D53E01C9B002B03
:102F80009DD00D9B002B9AD01C9B013B1C9396E778
:102F9000002798E7FFFFEF7FFFFFEFFF01FCFFFF38
:102FA0000000F03FFB799F501344D33FB3C8608BC0
:102FB000288AC63F0000F83F61436F63A787D23F6E
:102FC00071A379094F930A400000E03F1655B5BB45
:102FD000B16B0240EF39FAFE422EE63FFF030000DC
:102FE00000002C4000002440000018402D431CEB42
:102FF000E2361A3F80842E41FFF7FFFF069C079DB3
:103000002200290080200006844661440B000692BD
:10301000079376E765258CE7541C534649462020E4
:10302000B8472200931BAB42F6D3100001E7C0461D
:10303000F0B5DE4657464E464546E0B595B006909B
:10304000079193469946209F1E9A1F9B10001900D6
:1030500001F01DF8002831D101225242BF4B1E98C9
:103060001F9900F0F9FF002837D101225242BC4BD2
:103070001E981F9901F006F800283DD10022B94B97
:103080001E981F9900F0FEFF002850D10022B64B79
:103090001E981F9900F0E0FF002848D1002200236D
:1030A0001E981F9900F0D8FF002850D100239846A1
:1030B000229B5B0500D4B6E0002458E0229B0393DA
:1030C000219B029303230193A84B00934B465A463E
:1030D00007990698FFF7D8FB0EE1229B0393219BEB
:1030E000029304230193A24B00934B465A4607993F
:1030F0000698FFF7C9FBFFE00423229A1A402299A1
:103100000B4210D09B4B002A0FD00422229903912E
:1031100021990291019200934B465A4607990698CD
:10312000FFF7B2FBE8E0944BEDE70322EEE7229BCA
:103130000493219B039302971E9B1F9C0093019471
:103140004B465A4607990698FFF762FDD4E01E9A4F
:103150001F9B0020002100F014FF1E901F910123EF
:103160009846A5E70CAB30221A55013F01341F2CBD
:1031700001D8092FF6D81E981F9900F0B3FF05005B
:1031800000F098FF02000B001E981F9900F0F9FE56
:103190007A4BFA009B181A685B680A920B9300F04E
:1031A00014FF0890099100F0C1FF060000F07EFFB7
:1031B00002000B000898099900F0E3FE08900991BD
:1031C00000226F4B00F05EFF00282ED00136300049
:1031D00000F06CFF02000B000A980B9900F042FF10
:1031E000002801D001350026002F2CD1280000F046
:1031F00061FF02000B001E981F9900F0C2FE06003E
:103200000F0000225E4B00F027FF002846D100226D
:103210005B4B3000390000F035FF00283ED1EB0752
:103220003CD501353AE0062746E70022544B089882
:10323000099900F011FF0028D6D1002E01D0F30724
:10324000D2D50136D0E7AA461F2C11D8013F0A215A
:10325000300000F05BFC651C30310CAB19550A21C5
:10326000300000F053FC092E0ED906002C00EBE7CD
:1032700055461F2C0CD87B1E002F09D00CAA3021DC
:1032800011551F000134F4E72B0055461C00F0E7F0
:103290001F2C03D80CAB2E221A5501341F2C10D82A
:1032A0000A21280000F00AFC661C30310CAB1955CD
:1032B0000A21280000F002FC051E01D03400EDE7D1
:1032C00034000323229A1340012B1CD01F2C06D854
:1032D0004346002B32D00CAB2D221A550134229BD1
:1032E0000393219B029301940CAB00934B465A46E7
:1032F00007990698FFF7C8FA15B0F0BCBB46B2466E
:10330000A946A046F0BD219B002B13D04346002BBD
:1033100002D10C3313420FD0219B013B21931900A2
:1033200003E00CAB30221A5501348C42CED21F2C54
:10333000F7D9CBE72199F8E72199F6E7229B5B07BC
:1033400004D50CAB2B221A550134C8E7229B1B076E
:10335000C5D50CAB20221A550134C0E7FFFFEFFFA3
:10336000FFFFEF7F65CDCD4165CDCDC1A4ED04104C
:10337000A8ED041098ED0410A0ED0410801D0510B8
:103380000000E03FF0B5DE4657464E464546E0B504
:1033900093B08246884693461193002900D10DE3ED
:1033A00000255646119B1878002800D109E32528EE
:1033B00009D06C1C5B462A004146B047119B013383
:1033C00011932500EEE701331193002720E001233C
:1033D0001F4301321192012418E002231F430132DE
:1033E0001192012412E004231F430132119201249F
:1033F0000CE008231F4301321192012406E0102340
:103400001F4301321192012400E00024002C09D056
:10341000119A1378203BD9B21029F6D88B00C849ED
:10342000CB589F46119B1A781300303BDBB2092B17
:1034300010D92A2A13D00B94119B1A782E2A1ED049
:10344000119A1378683BD9B2122959D88B00BD491B
:10345000CB589F4611A8FFF705FA0B90ECE71C9B91
:103460001A1D1C921B68002B04DB0B93119B01336C
:103470001193E1E7022217435B420B93F6E78022A8
:10348000D20017435A1C11925A781300303BDBB21A
:10349000092B0BD92A2AD3D11C9B1A1D1C921C68FC
:1034A000002C08DB119B01331193C9E711A8FFF72A
:1034B000D9F90400C4E70024F4E780235B003B4310
:1034C000511C119151786C2901D01F0018E0C023C4
:1034D0009B001F430232119212E080233B43511C98
:1034E00011915178682901D01F0009E0C0231F43C2
:1034F0000232119204E080235B001F4301321192DB
:10350000119B1878672818D8252800D24CE20300B0
:10351000253BDAB2422A00D946E293008A4AD358C0
:103520009F4680239B001F4301321192E8E78023CE
:103530005B001F4301321192E2E7782800D933E2A1
:10354000692800D230E20200693AD2B201239340E6
:103550007E4A134211D11A0600D500E25B0500D461
:1035600022E21C9B1A1D1C921B689A46002C00D05C
:10357000B2E10122524253468EE16F280ED006D8A6
:1035800058283DD0622804D102239C4608E07828C0
:1035900039D010239F43063B9C4601E008239C46FC
:1035A000582833D0692803D0642801D00C229743CF
:1035B0007A0501D50122974369282AD0642828D0AA
:1035C000BA0500D59FE0FA0500D5C1E07A0600D41F
:1035D000D3E01C9A111D1C911168FF220A40059727
:1035E0000B9B049303946346029300230193009280
:1035F0005B462A0041463000FFF725FA050027E028
:1036000010239C46CCE710239C46C9E72022174391
:10361000C8E7BA0520D4FA0550D47A0666D51C9AB4
:10362000111D1C911168FF220A40D017111841404A
:1036300005970B9B0493039463460293D20F019268
:1036400000915B462A0041463000FFF7FCF9050077
:10365000119B01331193A5E61C9A073207218A4377
:10366000110008311C91116853689946DB170C93BF
:103670000D930C9A0D9B100048400E904A46534003
:103680000F930E980F990C9A0D9B801A99410E90EA
:103690000F9108970B9B07930694634604930023AE
:1036A00005934B46DA0F0292009001915B462A0087
:1036B00041463000FFF725FA0500C9E71C9A111DA5
:1036C0001C911268D0171118414005970B9B049369
:1036D000039463460293D20F019200915B462A0045
:1036E00041463000FFF7AFF90500B1E73A0605D5CE
:1036F0001C9A111D1C910023D25E96E71C9A111D85
:103700001C91126891E71C9A073207218A43110025
:1037100008311C9108970B9B07930694634604930A
:1037200000230593029353681268009201935B464D
:103730002A0041463000FFF7E4F9050088E7C0465B
:10374000E41B0510281C0510741C05104190000096
:103750001C9A111D1C9105970B9B049303946346BF
:10376000029300230193136800935B462A004146AD
:103770003000FFF768F905006AE73A0606D51C9A9B
:10378000111D1C9112681204120C28E71C9A111DBD
:103790001C91126823E7462819D01C9B0733072287
:1037A00093431A0008321C9204970B9A03920294D6
:1037B0001A685B68009201935B462A00414630001C
:1037C000FFF736FC0500119B01331193EAE5202336
:1037D0001F43E2E7672801D0472802D180231B015D
:1037E0001F43452801D0472801D120231F431C9B9C
:1037F0000733072293431A0008321C9204970B9A4E
:10380000039202941A685B68009201935B462A0057
:1038100041463000FFF7FCF90500119B013311937D
:10382000C0E502231A003A4091463B421DD00124D4
:103830001C9B1A1D1C926F1C18785B462A0041467F
:10384000B0474B46002B14D1119B013311933D001F
:10385000A8E5571C5B4641462020B04723003A00AC
:103860005C1C9D42F5D81500E2E701232A000B9D60
:10387000F6E73A00B1460B9E06E0571C5B46414610
:103880002020C8472C003A00651CA642F5D8170036
:103890004E46D9E701330A001978002902D0511E9B
:1038A000002AF7D152469B1A8022D20039001140DB
:1038B0008946174202D0A34200D9230002221100F8
:1038C000394010913A4209D02A00250057469A46BD
:1038D00033004E46994621E022004CE62A00454638
:1038E000A04606E0541C5B4629002020B0473B0060
:1038F00022005F1C0B999942F4D84446A8463B002D
:10390000250057469A4633004E46994606E01D006C
:103910000137541C5B464146C847220038780028CE
:1039200004D0002EF4D06B1E002DF0D115005346AC
:103930004E46109A002A03D1119B0133119331E5B1
:103940000B9F2A0006E0551C5B4641462020B047ED
:1039500023002A005C1C9F42F5D81500ECE72123C8
:103960003B431C9A111D1C91126805930823049374
:103970000394083302930023019300925B462A00CC
:1039800041463000FFF75FF80500119B01331193AA
:1039900008E56C1C5B462A0041462520B047119B78
:1039A000013311932500FDE46C1C5B462A0041465F
:1039B000B047119B013311932500F3E40A4B9A465B
:1039C000EEE4B2465D450DD35B465A1E5B4641466A
:1039D0000020D047280013B0F0BCBB46B246A94631
:1039E000A046F0BD2A00F1E7552800100EB430B50E
:1039F00084B0010007AC08CC03940122054D00946B
:103A000052422800FFF7BEFC04B030BC08BC03B033
:103A10001847C0464D28001010B582B0044C0093E2
:103A200013000A0001002000FFF7ACFC02B010BD3B
:103A30004D28001000B585B0029003910121044883
:103A4000009313004A4202A9FFF79CFC05B000BD99
:103A50005728001001480421014B1847F017002097
:103A6000853A001010B5010018231B881422108815
:103A7000984710BD10B5010018231B881622108826
:103A8000984710BDF0B5C64600B507000E000025EA
:103A90000123984600E00135B5420AD2AC003C193A
:103AA0002068FFF7DFFF20600028F4D1002398464C
:103AB000F1E7404680BCB846F0BD0000124A936F63
:103AC0009B0815D29066D166002905D0FFE7FFE775
:103AD000FFE7516F106F704704B580210906C217C8
:103AE0005140002800D0C8434AF0BEFB002104BD6D
:103AF000F0B5146E556E576F166FFFF7E3FF14663F
:103B0000556657671667F0BD000000D0114A936FE5
:103B10009B0813D210665166002905D0FFE7FFE726
:103B2000FFE7516F106F704704B5002801D00020E7
:103B3000C0434AF099FB002104BDC046F0B5146EA5
:103B4000556E576F166FFFF7E5FF1466556657679A
:103B50001667F0BD000000D094464A4A926F920862
:103B6000624601D228E0C046F0B5464E346E756E0E
:103B7000776F366F00F020F89446424A1466556617
:103B8000576716676246F0BD94463E4A926F9208A8
:103B9000624601D254E0C046F0B53A4E346E756EBE
:103BA000776F366F00F04CF89446364A14665566C7
:103BB000576716676246F0BD002B24DB11D0002941
:103BC0003EDA00B5C943404200D1013100F038F877
:103BD000C943404200D10131DB43524200D101339D
:103BE00000BD002AEBD1002801D1002905D000201A
:103BF000C90FC90701D1C043410800B54AF00CFB09
:103C00000022002300BD00B500290ADBDB4352423D
:103C100000D1013300F014F8C943404200D1013112
:103C200000BDC943404200D10131DB43524200D1C3
:103C3000013300F005F8DB43524200D1013300BDEF
:103C4000002923D1002B18D1002A0CD0BC460D4FDF
:103C500038667A6600210023FFE7FFE7FFE77A6F07
:103C6000386F67467047002801D00748010000B54B
:103C70004AF0D2FA0022002300BD02000B0000200F
:103C800000217047000000D0FFFFFFFF002B00D095
:103C9000BFE0130C28D1002AE7D080B4114F396659
:103CA0007A66FFE7FFE730B4040C7B6F396F1B04C3
:103CB00023433B667A66FFE7FFE7FFE7C04684B22F
:103CC0007B6F3D6F1B0423433B667A66FFE7FFE78C
:103CD000C04600232C042D0C7A6F386F00196941FF
:103CE000B0BC7047000000D0F0B594460025140E1B
:103CF00001D112020835140F01D112010435940FBD
:103D000001D192000235D40F01D152000135D40BFC
:103D10000134254F7C66254C3C660E0C93B2FFE7C0
:103D2000FFE7FFE73C6F6643360C7703BE467343FD
:103D3000DF0B5B04C01AB941130C7343DB18C91ABB
:103D4000CE086643360CB64493B273431F0F1B0173
:103D5000C01AB941130C73431F0B1B05C01AB9419C
:103D6000860D8F023E436643360C092D24DB520A32
:103D70007243801A7703460A6643360C16235B1B90
:103D8000DE40DF40BF1964466643821B704604353F
:103D900006330100D940A840C01900D30131A24226
:103DA00006D20023F0BD0000000000D0FFFFFFFF9F
:103DB000121B0130F3D3F1E709277F1BFE40644655
:103DC000A2B27243801A00D20139220C7243130C42
:103DD0001204821A99410B00704604351337010012
:103DE000F940A840801900D30131002B02D1A24232
:103DF0000AD2F0BD013000D30131121BFAD2013BCF
:103E0000F8D1A24200D2F0BD013000D30131121B23
:103E1000F7E7F0B51C0C00D080E00CB400251C0ABC
:103E200004D11B02160E3343120208351C0B04D1B9
:103E30001B01160F3343120104359C0B04D19B0068
:103E4000960F334392000235DC0B02D192185B418E
:103E500001351C00971864410134464F7C66464C7E
:103E60003C660E0CFFE7FFE7FFE7C0463C6F66438A
:103E7000360C7703BE4697B27743C01B00D2013998
:103E8000C01B00D201399FB27743C91BC91B170C55
:103E900077437E04FF0B801BB941CE086643360C86
:103EA0000C2D33DBB644120B1F053A431B0B97B2A4
:103EB0007743C01B00D201399FB27743C91B170C4F
:103EC00077433E043F0C801BB941860D8F023E4371
:103ED000664329277F1BFE400C3D7746AF40BF1944
:103EE00030BCA2B2ABB272437343801A9941220C28
:103EF0007243130C1204801A994102000B0001371F
:103F0000001BA941F9D2781E0021F0BD0C277F1BB0
:103F1000FE4077467F0BAF40FF19E0E700245D1CB1
:103F200007D0144F7D663966FFE7FFE7FFE7FFE73D
:103F30003C6F95B29EB265436643401BB141150C80
:103F40001E0C6543664336042F0C3E432D04401B74
:103F5000B141994204D202000B0020000021F0BDC3
:103F600001D19042F7D3801A994101349942F2D39A
:103F7000F6E70000000000D0FFFFFFFF484041408F
:103F8000484018B4134B5B68019308BD18B4114B3B
:103F90001B68019308BD94460F4A926F920805D2A0
:103FA000624618B40B4BDB68019308BD0A4AF0B5B2
:103FB000146E556E576F166F6246FFF7F2FF064A92
:103FC0001466556657671667F0BD18B4014B9B68B9
:103FD000019308BD9C470020000000D0FFB5504071
:103FE0004240504059404B40594000E0FFB5154F0A
:103FF0004C00640D03D0BC4204D10C0314D8002043
:10400000090D09055C00640D03D0BC4204D11C03FA
:104010000AD800221B0D1B0501264B4009D44B403A
:1040200003D58B4200D18242FFBD9942FCD1904220
:10403000FFBD0B43DB1803431343F5D0C9434918B5
:10404000FFBD0000FF07000000B5FFF7CFFF01D064
:10405000002000BD012000BD00B5FFF7C7FF804173
:1040600000BDC04600B5FFF7C1FF01D9002000BD6B
:10407000012000BD00B5FFF7B1FF01D9002000BD50
:10408000012000BD00B5FFF7A9FF804100BD012060
:1040900040054A00121804D85A00121801D800200E
:1040A0007047012070470020704700000021002861
:1040B00005D17047C1174840401AFAD0C90713B557
:1040C000064B1B6898470CBC441CA2401005120B01
:1040D0000349091B09051943114310BD9C480020E1
:1040E0001F04000010B54C00620D8023D218DB00C5
:1040F000D21A5B057E2A10DD9E3A13DACC1709032B
:10410000490819435242D140640001341532202A33
:1041100005DAD0400843604310BD002010BD0846BA
:10412000604310BDC80FC018013810BD18B4024B51
:104130005B6A019308BD00009C47002018B4024B45
:10414000DB6D019308BD00009C470020C94211D3DC
:1041500000B549004908002200F014F8002904D4F1
:10416000002240428A41114600BD802109060020FC
:1041700000BD000018B4024BDB6E019308BD0000C7
:104180009C47002018B4024B9B6F019308BD0000B0
:104190009C47002018B4024BDB6F019308BD000060
:1041A0009C47002010B50148FEF732FBB0ED04102B
:1041B00070B513231C78012C12D0012C12DC214B7A
:1041C000214A93642148FFF74DFC214B186070BDD4
:1041D00020491D4A9800815001331F2BF8D9ECE784
:1041E0000023FAE71C48FFF745FC05001B48FFF7D2
:1041F00041FC023803789B007F2B09DD12488022A6
:10420000290000F0ADF9022C08D0022CDADCD6E748
:10421000134B144A14483221FEF762FA134B1A88E2
:10422000B5231B029A4209D1114B1A88114B9A42AD
:1042300004D1114B1A88114B9A42E6D00020FEF7A8
:10424000E7FAC046814200109C4700204C33000032
:104250009C480020A5410010534400005346000034
:10426000C8ED0410D01D05101CEE041054380000D9
:10427000D8380000494600009C380000594600002C
:1042800007B56046002800D100BE01880A0A023046
:10429000DF2AFAD1C9B2820804D302884088000418
:1042A000104300E00068024A5050039007BD000030
:1042B0009C47002051434343C9188C46110C83B2DC
:1042C0004B4310B4040C614392B280B2504362433A
:1042D0001C041B0C001910BC59411304120CC0180B
:1042E00051416144704700004840414048400E4BF6
:1042F0005B6818470C4B1B6818470C4A936F9B0868
:1043000002D2094BDB681847F0B5146E556E576F33
:10431000166FFFF7F6FF054A14665566576716676E
:10432000F0BD014B9B681847A0480020000000D05A
:1043300007B548404140484001E0C04607B542004B
:10434000120E03D0FF2A03D1420218D8C00DC005B7
:104350004A00120E03D0FF2A03D14A020FD8C90D1A
:10436000C9050122414005D4414001D5814207BD24
:10437000884207BD0143491801D0C043001807BD5A
:1043800000B5FFF7DBFF01D0002000BD012000BD1C
:1043900000B5FFF7D3FF01D9002000BD012000BD0B
:1043A00001231B064200D21804D84A00D21801D8B3
:1043B0000020704701207047491A002808D108469C
:1043C00070470000C10FC90700D54042002817D030
:1043D000F44603B40B4B1B68984706BC81409E38DB
:1043E0004042803107D20B0607D04900490AC00578
:1043F0001043084360470130F8E7490A8902F5E7AE
:10440000704700009C480020014B5B6A1847000081
:10441000A048002010B50148FEF7FAF94402051043
:1044200070B513231E781848FFF724FB0500012EF2
:1044300011D0012E09DDAB1E1B789B007F2B1DDDEB
:1044400012488022290000F08BF81148FFF70AFB80
:10445000104B186070BD0D485422290000F080F800
:10446000002300E001331F2BE3D8084A9C00A25828
:10447000002AF7D10849054AA150F3E7074B084A3B
:1044800008484221FEF72CF953460000A0480020BE
:104490004C3300009C480020154400106CEE0410C2
:1044A000E41D0510A0EE041010B5002804D040183B
:1044B000034B984200D810BD0248FEF7A9F9C04648
:1044C00000000420F0EE041070B50500084E300026
:1044D00049F00AFF280039F07BFA0400300049F067
:1044E00093FE29002000FFF7DFFF200070BDC046CB
:1044F0009028002070B504000D00094E300049F0EE
:10450000F3FE2900200039F069FD0400300049F075
:104510007BFE29002000FFF7C7FF200070BDC046CA
:104520009028002070B50400054D280049F0DCFEFD
:10453000200039F057FA280049F066FE70BDC046E9
:104540009028002001480421014B18470018002042
:10455000853A0010014B1B68184700000018002026
:10456000014B5B68184700000018002010B5FFF7EA
:10457000ABFF10BD10B5FFF7A7FF10BD10B5FFF7DB
:10458000D1FF10BD10B5FFF7CDFF10BD10B5FFF77F
:10459000C9FF10BD084B5B6A994209D8064A926A66
:1045A000824207D2994201D0012002E0002000E0BF
:1045B000002070470120FCE70040054010B50300D3
:1045C000080011001B68984710BD0000F8B50700EF
:1045D0000D001600437D002B02D0002400200CE0CB
:1045E00003681100280098472DE03B7D10E03B68F0
:1045F000154802219847601C0134B44214DA002C9B
:10460000F3DD2B19013B1B780D3B5A425341DBB2C2
:104610002A5D0A2AF0D1002BEED1A042E7DA3B68EE
:10462000211A28189847E2E7B04203DA3B68311AAA
:1046300028189847002E06DDAD19013D2B780D3B5B
:104640005A4253413B75F8BD281E051070B5050050
:104650000368002B16D00C4B1C6805E0290004C928
:104660002000FFF7B3FF2469002C09D02368002B3A
:10467000F9D0064B1B68002BF0D0A342F3D1EDE735
:1046800000232B6070BDC046184500202045002047
:1046900070B505000C000B68802B05D023685A1CF0
:1046A0002260E418257170BD0800FFF7CFFFF5E721
:1046B00010B5002B02DB0260436010BD024B034AC1
:1046C00003483F21FEF70CF8DCE704102C1E051010
:1046D000F8E7041010B582B00400FDF7C7FA020035
:1046E0000B006846FFF7E4FF009A019B22606360BD
:1046F000200002B010BD000070B582B006001400AA
:104700001D00FA229200002306980021FFF7D2FD37
:1047100002000B0012196B41002B09DB6846FFF702
:10472000C7FF009A019B32607360300002B070BD19
:1047300001225242004BF1E7FFFFFF7F30B585B009
:1047400004000D0002A8FFF7C5FF029A039B009525
:104750002000FFF7D1FF200005B030BDF8B5CE46F0
:10476000474680B507000E00914698461BE0A368B7
:10477000002B04D0310038009847002818DC246949
:10478000002C06D00C4D2D68002DF0D0A542F6D19E
:10479000EDE748464146FFF7FDFE002806D101201F
:1047A0000021FDF783FA054B1C68E9E70120404230
:1047B000C0BCB946B046F8BD2045002018450020D1
:1047C00000B583B0FA2189006846FFF7B7FF009A69
:1047D000019B024849F068FD03B000BD9828002005
:1047E00010B5024849F010FD10BDC04698280020C1
:1047F000F0B5CE46474680B583B006000D00904622
:104800001C00FFF7DDFF81466B1C05D0002C08D093
:10481000194F1A4B1C6807E030003FF08BFD050074
:10482000F4E7174FF5E72469002C17D02368002B15
:10483000F9D0144B1B68002B01D0A342F3D12A00FE
:1048400031002000B8474346002BECD06B46D91D01
:104850000A230B7001222000B847E4E74B46002BE7
:1048600007D16B1E9D41E8B203B0C0BCB946B0464B
:10487000F0BDFFF7B5FFF4E7BD4500101845002077
:10488000CD4500102045002010B5030008001100A0
:10489000002B05D1044B1A685B68FFF75FFF10BD62
:1048A00001204042FBE7C046301B051010B5030055
:1048B00008001400013B012B06D800230022210030
:1048C000FFF796FF200010BD01204042FBE70120CA
:1048D00040427047012040427047012040427047EB
:1048E0000300002002229A4240417047094A01E039
:1048F00010331A001368002B08D08342F8D1002926
:1049000007D1036913600023036102E0002900D08E
:10491000106070471845002010B5064B1C6801E078
:1049200098472469002C03D06368002BF8D1F8E77E
:1049300010BDC0461845002070B505003FF0FAFCD8
:1049400004000023012201002800FFF751FFFFF7B8
:10495000E3FF200070BD000070B5A2B004000E009F
:10496000FFF72EFF0500002301930A4833002200C1
:1049700001A9FFF75FF8040001A8FFF767FEFFF742
:10498000CBFF002D02D1200022B070BDFFF728FF21
:10499000F9E7C046914600100FB400B583B004A9F2
:1049A00001C90191FFF7D8FF03B008BC04B0184754
:1049B00010B500F0FFF8012010BD000010B582B066
:1049C0000C00144BC3185A425341134A5B009B5EC0
:1049D0008B4204D06B46DA1D1470002115E06B4643
:1049E000DA1D0D23137000210029F3D183699B0682
:1049F000FCD41378036001310132F5E783699B062B
:104A0000FCD413780360013101320029F6D002B0E2
:104A100010BDC0460080FCBFB449002082B0002217
:104A20006B46D91D06E08369DB06FCD403680B7076
:104A300001320131002AF6D06B46D87902B07047B6
:104A400070B506000D00002405E0315D034B1868C9
:104A5000FFF7B4FF0134AC42F7DB70BDB84900206A
:104A6000F8B506000D00002705E07C1CF719FFF7DC
:104A7000D5FF38702700AF4204DA0E4A1068826909
:104A8000D206F2D50C4A1268002A0CD0094A1268E4
:104A90005021916310003430526B1839114080223C
:104AA000520102431160002F01D03800F8BD033FCE
:104AB000FBE7C046B8490020A444002010B5064BCF
:104AC0001B68002B06D0054A126800219163044A36
:104AD0001068984710BDC046A4440020B849002083
:104AE000A844002070B505000E001C4B1A681C4B32
:104AF000D31859424B4114331C0000281ED0194BC7
:104B00001B68002B04D0174B1D60174B1E6070BD37
:104B100016492000FCF73CF901212000FCF728F998
:104B20000E4B1B6850229A63190034315B6B183AA4
:104B30001A4080235B010B431A60E4E7094B1B68B2
:104B4000002BE0D00023936300212000FCF710F934
:104B500006492000FCF74EFAD5E7C046B8490020C8
:104B60000080FCBFA4440020A8440020BD4A0010DF
:104B700070B50D001C000D4B1860002A0BDA002CDC
:104B80000EDA0A4B18682900FDF78EFB0848012150
:104B9000FFF7ACFE70BD02211000FBF71FFFEEE730
:104BA00002212000FBF71AFFEBE7C046B8490020BE
:104BB0001018002010B5064B1B78064B1B78E1211E
:104BC0000123002249020448FFF7D2FF10BDC0466E
:104BD00058350610543506100040034010B5040047
:104BE00010220021FFF7B6FC80235B022360F8232C
:104BF0005B0263608023DB02A360C0231B03A3600E
:104C0000200010BD0523CB56002B01DB934211D1B0
:104C1000094B9C46604443425841084B8000C058B1
:104C2000097901238B40013B93401840434258418E
:104C3000C0B270470020FCE70000D0AF84430020E2
:104C400070B50A79202A19D8174B9C466044434214
:104C50005841164B8000C45801239340013B4979C9
:104C600049B2002910DB08002025AA1A914218DC5D
:104C70008B401C4201D00120404270BD0C4B0D4ABC
:104C80000D484021FDF72CFD2020801A002805DB6F
:104C90001A0082401442F0D00138F7E70120404268
:104CA000EBE701204042E8E70000D0AF844300205A
:104CB00070EF0410581E05109CEF041070B505002D
:104CC0000C001600FFF79EFF002801D0002108E02D
:104CD0001648FDF79DFD9A198B1912339B005A5106
:104CE000013123798B4211D9227863781B02134357
:104CF000A27812041A43E3781B0613434A009B5A16
:104D0000802292019342E6D31A00E5E701229A40FD
:104D10001300013B064A944665446A4255410549E1
:104D2000AD006A58B34013436B5070BDE4EF0410FC
:104D30000000D0AF84430020F8B505000E00FBF75B
:104D400031FF070031002800FFF77AFF041E09DB5E
:104D5000020031002800FFF7B1FF3800FBF72EFFFB
:104D60002000F8BD0148FDF753FDC046E4EF0410F4
:104D7000F0B5C64600B506AC25784C006618F600BE
:104D800086193700DC373F68BC46CC363668B046FB
:104D90006418E400C83404190434C026B60134434E
:104DA0008026B6022660002D01D01F2614E00026C2
:104DB00012E05401A0256D0525434C006418E40061
:104DC00004192700DC373D60114D3543D834256088
:104DD000053B05321F242240052BEAD89B065201D1
:104DE00013434C006218D20082181500DC352B608A
:104DF000074B3343D832136063462B606418E400DA
:104E00000019CC304346036080BCB846F0BDC046B4
:104E100080E0000070B584B004000D001600026848
:104E20000121A9408A430260002B34D01868690030
:104E30004919C90061180A00C83210605868043264
:104E40001060986804321060DB68DC310B606A0027
:104E50005319DB00D033E318802149010B43802133
:104E6000090619601960164BAB40A3602B1D012188
:104E70000800984080239B012343186028000830D5
:104E8000814019601F2333405219D200A418D8342E
:104E9000236004B070BD6846FFF7A0FE00996B0068
:104EA0005B19DB00E3181A00C83211600199043263
:104EB0001160029904321160039ADC331A60C6E76C
:104EC00001010101028880235B019A4219D2022369
:104ED000C356013BDBB20B2B15D80323C356013B52
:104EE000DBB21E2B11D80379062B10D84379172B70
:104EF0000FD883793B2B0ED8C3793B2B0DD80120DB
:104F000000E0002070470020FCE70020FAE70020C6
:104F1000F8E70020F6E70020F4E70020F2E70000C1
:104F2000024BDB685B0801201840704700C0054059
:104F300010B50920FDF7FCFA002813D080231B02CE
:104F40000E4A13600E4A13600E4B9A6880231B02B0
:104F50009343F9D1013880235B02984208D20A4B6F
:104F6000186010BD094B0A4A0A481921FDF7B8FB21
:104F7000094B074A07482421FDF7B2FB00E0004037
:104F800000F0004000C0004000C00540F8EF0410F1
:104F9000781E051008F0041050F0041010B504003D
:104FA000FFF790FF002829D0154B0022DA60FFF7A9
:104FB000B7FF0028FBD10022A35E1B030222A256EA
:104FC000120213430322A25613430D4A53600423D3
:104FD000E3561B060521615609040B430621615661
:104FE00009020B43072161560B4393601023D360E2
:104FF0000F3BD360FFF794FF0028FBD010BDC046E5
:1050000000C0054070B50400FFF78AFF00281CD0DF
:105010000E4AD36992691D0E0721294021711D0C8A
:105020001F210D4065711E0A3F252E40A6715BB2FF
:105030001D40E571130B1B051B0D2380150A0F2363
:105040002B40A37052B21140E17070BD00C005400A
:1050500010B5024800F004F810BDC046B446002068
:1050600030B589B0040004AD0D2200212800FFF7FF
:1050700071FA0D2200216846FFF76CFA4B232B7062
:105080000D226946280049F0B7F8002304E05A1DB4
:1050900069468A5CE2540133072BF8DD09B030BD64
:1050A000054B984204D3054B984203D3002000E0FF
:1050B000002070470120FCE7C0010010CC01001067
:1050C000044B9B68103080001950BFF35F8F82F350
:1050D0001088704700ED00E0024B9B6810308000A4
:1050E000C058704700ED00E0F8B505000E00EFF382
:1050F000108772B6FFF7F0FF0400B04203D0FFF74D
:10510000CFFF002806D03A0031002800FFF7D8FF73
:105110002000F8BD024B034A03482F21FDF7E0FAB7
:10512000D4F10410941E051018F20410104A53070D
:105130001BD0D11D0723994380239B025B1A9B1828
:105140000A000C48026000214160D318083B072088
:1051500083430948036059601960991A51601360CC
:10516000064B1960064B1960704780239B02E8E7E5
:10517000BC490020BC4A0220484600204C4A02207C
:105180003C4A022010B51A4B19001B688342FBD31E
:10519000174A914205D0174A91420FD3164A9142BD
:1051A0000CD84A688C1884420FD042688418A342F5
:1051B00010D00360884200D0086010BD0F4B104A29
:1051C000802110488900FDF78BFA406812184A6068
:1051D0000800EAE70C4C2468A34206D05B68D218AA
:1051E00042600B681B680360E4E70460E2E7C046C6
:1051F000BC4A0220BC490020BB4902206CF20410CA
:10520000B41E0510E8F2041048460020F8B5041E4C
:1052100010D0030009330CD8083407231A002240A9
:10522000234207D001339B1A093AA2422AD3E41839
:1052300000E0002401F03CFC484B1B68002B23D00D
:10524000002C00DA7AE000D17AE0454B1868A042E1
:1052500000D277E0434B1A68434B9A4217D3434B33
:105260009A4214D83F495368A3421CD21368002BBA
:1052700019D03D498B4210D311003C4A93420CD8BF
:105280001A00F0E70024D5E7FFF750FFD8E7384BC6
:10529000384A3948F621FDF723FA354B354A364866
:1052A000FC21FDF71DFA2D4B1B6893424CD00D6875
:1052B00008352D4B9D422CD32C4B9D4229D8136889
:1052C0000B605368A3422BD31B1B102B07D9161955
:1052D00077072CD1736054600B6833600E6051689F
:1052E000401A1F4B1860254B1B68984201D2234B74
:1052F000186080231B060B43536000231360204A71
:1053000013680133136002F077F96B071ED1280090
:10531000F8BD1C4B174A832117484900FDF7E0F9F7
:10532000194B144A872114484900FDF7D9F9174B46
:10533000104A18211048FF31FDF7D2F90025E2E7A5
:105340000025E0E70025DEE70025DCE7104B094AF1
:105350005E210948FF31FDF7C3F9C04648460020E9
:105360003C4A0220BC4A0220BC490020BB49022022
:1053700034F30410DC1E0510E8F204104C4A02203D
:10538000584A0220A8F3041020F4041054F4041026
:1053900088F4041070B5002826D00500083D1D4B88
:1053A0009D4222D31C4B9D421FD80300083B5B68E3
:1053B000002B21DA0200083A1268002A23D10838AB
:1053C00004005B005B08436001F072FB6168134AF4
:1053D00013685B1813602800FFF7D4FE104A1368A7
:1053E0000133136002F008F970BD0E4B0E4AB8216C
:1053F0000E484900FDF774F90D4B0B4A72210B481A
:10540000FF31FDF76DF90B4B074AB92107484900F9
:10541000FDF766F9BC490020BB4902203C4A022046
:105420005C4A0220C4F40410D01E0510E8F20410F7
:1054300038F50410ACF50410084B5B6A994209D8A2
:10544000064A926A824207D2994201D0012002E0C4
:10545000002000E0002070470120FCE700400540EC
:105460007047000000000000000000000000000085
:105470000BA10CC9126892009B581868203080F369
:105480000988022080F31488BFF36F8F3FBCAE46BB
:1054900008BC04BC62B61847C046C046C046C046F9
:1054A000000000D03846002002E0D0231B069B6D90
:1054B000D0231B061B6DDB07F7D4D0231B06FF226E
:1054C0001A65024B802252051A60704704ED00E015
:1054D000EFF309811AA00CC8106880001B18186827
:1054E00020390160F0C144464D4656465F46F0C142
:1054F000146E556E566F176F3039F0C1106808B5CD
:1055000072B601F01BFC62B60CBC11680868103062
:10551000F0C8A046A946B246BB4680F309880D22D2
:1055200012073038F0C81466556656671767F0C81A
:105530001847C046C046C046C046C046C046C046E2
:10554000000000D03846002010B5FDF779F90000C2
:1055500010B5002B02DB0260436010BD024B034A12
:1055600003483F21FDF7BCF8DCE70410EC1E0510F2
:10557000F8E7041010B501F0A3FE040001F0EAFA08
:10558000002803D0034B802252051A60200002F04D
:10559000F7F910BD04ED00E010B582B00400FCF78F
:1055A00065FB02000B006846FFF7D2FF009A019BE3
:1055B00022606360200002B010BD000030B583B0EF
:1055C00004000D006846FFF7E7FF009A019B2000EA
:1055D0002900801A99410A4A01235B4280185941E7
:1055E000002907DC02D0002003B030BDFA239B0065
:1055F0009842F8D3FA2292000023FEF7ADFAF3E7BF
:1056000018FCFFFF10B5031F802464041C60043BDA
:105610001960044B01000C390B600300203B1A6039
:10562000403810BD4955001010B5D0231B061A682C
:105630000A4B9200D358002B08D1094B8022520507
:105640001A60BFF34F8FBFF36F8F10BD054B064A33
:10565000CC210648FF31FDF743F8C046A4460020A0
:1056600004ED00E0D4F504106C1F051008F60410DA
:10567000D0231B061B68084A99008958002909D0C5
:105680009B0000209850054A9B58BFF35F8F08602D
:1056900083F3108862B67047A4460020C4490220F4
:1056A000EFF3108072B6704780F3108870470000E7
:1056B00010B5D0231B061B68834204D0D0231B06E1
:1056C00000225A6510BD034B034A04480449FDF704
:1056D00007F8C04660F60410601F051008F60410B5
:1056E0001E02000010B5094C00232360084A136015
:1056F0000520FCF71DFFFA218900FEF707FA0138A3
:10570000044B18600723236010BDC04610E000E082
:1057100018E000E014E000E070B5244B1A78D023C4
:105720001B061B689A4214D0214A1168FF231B04F0
:105730000B4313601F4902204042FFF7D5FC1E496E
:1057400005204042FFF7D0FCD0231B06FF221A653C
:1057500010E0FFF7C7FF164A1168FF231B060B4333
:105760001360164901204042FFF7BEFCDCE7D0235E
:105770001B069B6DD0231B061B6DDB07F7D4D025C2
:105780002D062C680F34FF212000FBF7F7FC0C4995
:105790002000FBF7FDFA01212000FBF7E9FAFFF7F3
:1057A00067FE286801F0CAFAFFF7CEFE281800202D
:1057B00020ED00E0D1540010615400107555001028
:1057C000A954001010B5124B1B78FF2B06D0114BBB
:1057D000114ABA2111484900FCF782FF0E20FBF75D
:1057E0002FFA0F20FBF72CFA094B00221A70D02356
:1057F0001B061B68934206D0094B074ABE21074887
:105800004900FCF76DFF074802F050FBFFF784FFEB
:105810002818002084F60410781F051008F60410DC
:10582000A0F604102958001010B572B6FFF774FFE7
:1058300010B50A4B1B78FF2B0CD0EFF30580002826
:1058400005D0D0231B061B684000C01810BD01F016
:1058500059FBFBE7D0231B061868F7E72818002040
:1058600010B582B0EFF30583DBB2002B28D1224BB9
:105870001B78FF2B2AD0D0231B061B681F4A9C00D5
:10588000A258002A2BD10468002C2ED01B4A9B0062
:105890009C501B4A995003681A4A944663449B10D3
:1058A000012199400B021943090A174B186801237B
:1058B0005B4200930023012200F026F902B010BDE4
:1058C000124B134A13481449FCF70AFF0368BFF34D
:1058D0005F8F00221A6081F3108820BFEEE70F4B24
:1058E0000B4A0C480E49FCF7FBFE0E4B084A0948D0
:1058F0000D49FCF7F5FEC04628180020A4460020FC
:10590000C449022000FFFF2F384A0220B4F60410D9
:105910003C1F051008F60410FF030000D4F5041026
:105920000904000020F704100E04000010B582B036
:105930000C0002681B4B9C4662449210012393406A
:105940001A021343190A184B1B78FF2B20D040BFB3
:105950000368BFF35F8F00221A6084F31088EFF3AF
:105960000583DBB2002B04D1104B186800F05CF902
:1059700016E0002301930D4B186801AA00F0A6F968
:10598000019B002B0CD00A4B802252051A6007E0C5
:1059900040BF0368BFF35F8F00221A6084F3108852
:1059A00002B010BD00FFFF2F28180020384A022047
:1059B00004ED00E0F0B583B006000F0015001C00F8
:1059C000EFF30583DBB2002B2ED1314B1B78FF2B7D
:1059D00030D0D0231B061A682E4B9200D358002BD0
:1059E00035D128002100FFF7E9FD031E3CD03068C7
:1059F000002833D0D0221206126826499200505057
:105A000025495750326825498C466244921001213D
:105A100091400A021143090A214A106800930023A9
:105A2000012200F071F826E01E4B1F4A1F48204952
:105A3000FCF756FE0368BFF35F8F00221A6081F304
:105A4000108828002100FCF78BF8040019E0194B9E
:105A5000154A8B211548C900FCF742FE164B124A25
:105A600012481649FCF73CFE3368BFF35F8F0022F3
:105A70001A6087F3108828002100FFF7DDFC041E60
:105A800002D0200003B0F0BDFFF7CEFDF9E7C0461D
:105A900028180020A4460020C449022000FFFF2F40
:105AA000384A0220B4F60410041F051008F604104A
:105AB0004D040000D4F5041020F704106104000028
:105AC00010B500F014F8014B186010BD384A0220E0
:105AD000002A03D1014206D1100003E008408842A9
